:020000040800F2
:100000003060002031030008B31D0008D914000837
:10001000B11D0008910C00084536000800000000E2
:10002000000000000000000000000000790200084D
:10003000010D000800000000CD0200085126000854
:100040004B0300084B0300084B0300084B03000858
:100050004B0300084B0300084B0300084B03000848
:100060004B0300084B0300084B0300084B03000838
:100070004B0300084B0300084B0300084B03000828
:100080004B0300084B0300084B0300084B03000818
:100090004B0300084B0300084B0300084B03000808
:1000A0004B0300084B0300084B0300084B030008F8
:1000B000392A0008492A00085D2A00084B03000875
:1000C0004B0300084B0300084B0300084B030008D8
:1000D0004B030008E5310008D13200080D34000858
:1000E0004B0300084B0300084B030008852A000857
:1000F000CD2B00084B0300084B0300084B030008FE
:100100004B0300084B030008712A00084B0300084A
:100110004B030008253100084B0300084B0300087F
:100120004B0300084B0300084B0300084B03000877
:100130004B0300084B0300084B0300084B03000867
:100140004B0300084B0300084B0300084B03000857
:100150004B0300084B0300084B0300084B03000847
:100160004B0300084B0300084B0300084B03000837
:100170004B0300084B0300084B0300084B03000827
:100180004B0300084B03000800F002F800F064F88D
:100190000AA090E8000C82448344AAF10107DA45E2
:1001A00001D100F059F8AFF2090EBAE80F0013F0D0
:1001B000010F18BFFB1A43F001031847AC80000081
:1001C000CC8000000A444FF0000C10F8013B13F003
:1001D000070408BF10F8014B1D1108BF10F8015BA0
:1001E000641E05D010F8016B641E01F8016BF9D193
:1001F00013F0080F1EBF10F8014BAD1C0C1B09D1EA
:100200006D1E58BF01F801CBFAD505E014F8016B5B
:1002100001F8016B6D1EF9D59142D6D370470000ED
:100220000023002400250026103A28BF78C1FBD8FF
:10023000520728BF30C148BF0B607047642900F0E7
:100240000381732900F03282002070471FB506F049
:10025000EFFA1FBD10B510BD00F09BFA1146FFF775
:10026000F5FF03F0CFFB00F0B9FA03B4FFF7F2FF9C
:1002700003BC03F013FA00002A4B19680868B0E8C1
:10028000F04F80F30988BFF36F8F4FF0000080F3C9
:10029000118870470000000006480068006880F37D
:1002A000088862B661B6BFF34F8FBFF36F8F00DF70
:1002B00000BF00BF08ED00E0DFF80C00016841F46A
:1002C00070010160704700BF88ED00E0EFF3098026
:1002D000BFF36F8F134B1A681EF0100F08BF20ED8D
:1002E000108A20E9F04F106008B44FF0500080F3FE
:1002F0001188BFF34F8FBFF36F8F05F07DF94FF07B
:10030000000080F3118808BC19680868B0E8F04F55
:100310001EF0100F08BFB0EC108A80F30988BFF3FD
:100320006F8F70475C000020EFF30580704700007E
:100330000948804709480047FEE7FEE7FEE7FEE779
:10034000FEE7FEE7FEE7FEE7FEE7FEE704480549B5
:10035000054A064B70470000652600088901000821
:10036000305A002030600020305C0020305C0020DB
:10037000704700000FB4044910B503AA029800F0BA
:1003800099F910BC5DF814FB480000202DE9F041FC
:100390000E460446002020622046E168884730B3BC
:1003A000252805D0D4E901219047206A401CF2E7B6
:1003B000E168204600278847050018D0A5F14100D4
:1003C000192802D820354FF40067324629462046C6
:1003D0002760FFF733FF40B1012804D0F61D26F057
:1003E00007060836D8E7361DD6E72846DAE7206A3A
:1003F000BDE8F08170B50C460546012A05D0287885
:10040000800600D5EA69002302E0012305E05B1CB9
:10041000934202D2E05C0028F9D1A869E618C01A1C
:10042000A861286A184428622846AFF3008004E0D7
:10043000D5E9012114F8010B9047B442F8D32846BE
:10044000AFF3008070BD00002DE9F04106460024A6
:1004500010687529314616A510D0AFF3008000282A
:1004600002DA404213A507E031688A0701D512A5D8
:1004700002E0490704D511A5012401E0AFF3008093
:1004800000210A2206F1240709E0B0FBF2FCB0FBD0
:10049000F2F302FB1C00303078541846491C002847
:1004A000F3D123462A463046BDE8F04100F07BB840
:1004B000000000002D0000002B00000020000000C4
:1004C000032A40F2308010F0030C00F0158011F880
:1004D000013BBCF1020F624498BF11F801CB00F858
:1004E000013B38BF11F8013BA2F1040298BF00F8AC
:1004F00001CB38BF00F8013B11F0030300F0EC80A2
:10050000083AC0F0088051F8043B083A51F804CB8F
:10051000A0E80810F5E7121D5CBF51F8043B40F855
:10052000043BAFF30080D20724BF11F8013B11F860
:1005300001CB48BF11F8012B24BF00F8013B00F8A4
:1005400001CB48BF00F8012B704702F0FF0343EADC
:10055000032242EA024200F002B84FF000020429EE
:10056000C0F0128010F0030C00F0EA80CCF1040C13
:10057000BCF1020F18BF00F8012BA8BF20F8022B16
:10058000A1EB0C0100F0DCB85FEAC17C24BF00F8ED
:10059000012B00F8012B48BF00F8012B7047704772
:1005A0007047704770472DE9F0470D4699469246CF
:1005B000044600F124080168880604D5E06921F0AA
:1005C0001001216000E00120A84201DD471B00E08E
:1005D0000027A1697A1902EB0900081AA0612078A6
:1005E000C00602D42046AFF30080002608E0D4E91C
:1005F00001211AF806009047206A401C761C2062F0
:100600004E45F4DB2078C0060AD52046AFF30080C3
:1006100006E0D4E9012130209047206A401C206286
:10062000381EA7F10107F4DC07E0D4E9012118F82E
:1006300005009047206A401C2062281EA5F1010594
:10064000F3DC2046AFF300802078000602D50220BC
:10065000BDE8F0870120FBE701694A1C02610878C8
:10066000704700B58FB0CDE90131002105910549F2
:100670007944CDE9031011466846FFF787FE0FB0B5
:1006800000BD0000E5FFFFFF10B5436913B1AFF3F4
:10069000008001E0FFF7AEFE012010BD127800F1EE
:1006A00024010A7000224A700122EDE711684FF020
:1006B000FF32E9E7074B70B50D467B44FFF7D1FFEA
:1006C0000446284600F061F810B14FF0FF3070BDCD
:1006D000204670BDF332000010B5203AC0F00B8008
:1006E000B1E81850203AA0E81850B1E81850A0E836
:1006F0001850BFF4F5AF5FEA027C24BFB1E8185090
:10070000A0E8185044BF18C918C0BDE810405FEAFF
:10071000827C24BF51F8043B40F8043B08BF70477B
:10072000D20728BF31F8023B48BF11F8012B28BF80
:1007300020F8023B48BF00F8012B70474FF0000241
:1007400000B5134694469646203922BFA0E80C50C7
:10075000A0E80C50B1F12001BFF4F7AF090728BFA2
:10076000A0E80C5048BF0CC05DF804EB890028BF1E
:1007700040F8042B08BF704748BF20F8022B11F047
:10078000804F18BF00F8012B7047007B00F08000FD
:100790007047754600F02CF8AE4605006946534692
:1007A00020F00700854618B020B5FFF7CFFDBDE863
:1007B00020404FF000064FF000074FF000084FF0C8
:1007C000000B21F00701AC46ACE8C009ACE8C00959
:1007D000ACE8C009ACE8C0098D46704710B50446C6
:1007E000AFF300802046BDE81040FFF73EBD00009B
:1007F00000487047D05900200029816802D041F09C
:10080000010101E021F0010181607047084B10B542
:10081000D3F8042307490A40D0E900142143D0E962
:100820000240044321431143C3F8041310BD0000E8
:1008300000200140E030FCFFC06C80B270470246EF
:10084000002012680A4200D00120704730B542688B
:100850000F4B0C791A400B6842EA042213434360A1
:1008600082680C4B4D791A40D1E9034323438C68CD
:1008700044EA4504234313438360C26A097D22F49A
:100880007002491EC9B242EA0151C16230BD000086
:10089000FFFEFFFCFDF7FFC070B5072609290AD946
:1008A000C568A1F10A0404EB4404A640B543A34083
:1008B0001D43C56007E0056901EB4104A640B5434F
:1008C000A3401D4305611F23072A09D2446B521E12
:1008D00002EB820293409C4391400C43446370BD01
:1008E0000D2A09D2046BD21F02EB820293409C4373
:1008F00091400C43046370BDC46A0D3A02EB82025E
:1009000093409C4391400C43C46270BD816841F0A8
:1009100080418160704700001148D0ED000A9FEDD2
:10092000111A9FED110A10EE810AF3EE0B0A80EE08
:10093000201ABDEEC10A10EE101A642900DD6421F0
:100940000A4A107840B100201070002806D10848EB
:10095000026808A0FFF70EBD0120F5E77047000010
:100960001800002000007A4400401C466801002066
:10097000E4000020202564202564200030B58DB0DF
:100980000121022001F008FC01210D02284601F09E
:100990001BFC032002218DF82C000A9100248DF805
:1009A0002F400AA9134800F0E3FB0121284601F07B
:1009B00017FC0021284601F013FC069468020994F4
:1009C000CDE9070406A8FFF721FF8DF80440009445
:1009D0008DF80540029404940120074C8DF8140012
:1009E00069462046FFF732FF01212046FFF704FF4A
:1009F0000DB030BD000402400020014070B58CB045
:100A00000121022001F0C8FB01214E02304601F015
:100A1000DBFB03208DF82C00012500240A958DF8BE
:100A20002F400AA9134800F0A3FB0121304601F032
:100A3000D7FB0021304601F0D3FB069468040994EB
:100A4000CDE9070406A8FFF7E1FE8DF80440009405
:100A50008DF8054002940494074C8DF814506946B3
:100A60002046FFF7F3FE01212046FFF7C5FE0CB03C
:100A700070BD000000040240002101401CB502F0DE
:100A8000A3FFDFF82491DFF824A1494F40F6B838DE
:100A900001900A2101A804F0DDFB3868404501DA25
:100AA000401C38607868401C786000F067FC00F0FB
:100AB000BFFF99F8000010B100F0E2FB0AE03D48EA
:100AC00090ED001A3C48D0ED000A3C4890ED000A39
:100AD00000F018F900F07CF89AED000ABDEEC00AAB
:100AE00010EE100A02F0F6FA38B100200346024672
:100AF0000146009001F0C6FCCBE7314CD4ED020A70
:100B000094ED000A00F086FE00EE100A2D4DB8EEBE
:100B1000C00A84ED010AD5ED020A95ED000A00F045
:100B2000B7FE00EE100A284EB8EEC00A85ED010AA5
:100B3000D6ED020A96ED000A00F0E8FE00EE100A7B
:100B4000224BB8EEC00A86ED010AD3ED020A93EDFE
:100B5000000A00F019FF00EE100A44F23C10B8EE53
:100B6000C00A83ED010A00F09FFFB868009093ED82
:100B7000010ABDEEC00A10EE103A96ED010AB1EE80
:100B8000400ABDEEC00A10EE102A95ED010AB1EE42
:100B9000400ABDEEC00A10EE101A94ED010ABDEE37
:100BA000C00A10EE100AA5E7F0000020180000208F
:100BB0002001002000010020FC000020F80000209F
:100BC0005C59002070590020845900209859002059
:100BD0002DE9F041284C294D002621692868284F2D
:100BE000814203D008B320612E6026E0012802D0A4
:100BF000062806D00BE00221384600F00CFBE66028
:100C000005E00221384600F008FB0120E06028687A
:100C100058B11C4841F62C220168914206DA0121A4
:100C2000384600F0F8FA3220A06006E02E60A66098
:100C300006600121384600F0F0FA134800680128E8
:100C400001D028B108E00421384600F0E6FA03E0BC
:100C50000421384600F0DFFA0C48E268011D012A41
:100C600001D12A681AB106600E60BDE8F08144F235
:100C70003C1202600A60F8E720010020D800002042
:100C800000080240DC000020E000002034040140A5
:100C9000FEE700001CB50121084601F07DFA4FF483
:100CA0008070009001208DF8040000218DF806105E
:100CB00003218DF805108DF807006946014800F002
:100CC00057FA1CBD0000024030B503460020012940
:100CD00008D10022094C03E0A55C6840521CD2B246
:100CE0009A42F9D3002908D1044A303203E0545C17
:100CF0006040491CC9B29942F9D330BDB405002007
:100D00007047000000B5B0EE0C4A01F0F5FB2B482F
:100D10002D4B2F49D0ED002A90ED012AD0ED020A8B
:100D2000274832EE223A32EEC22A90ED000A2548D8
:100D3000F0EE433A274A90ED001A244870EE011A6B
:100D4000B0EE421A00EEE13A00EEE11A40EEA13AAE
:100D500000EEA12AF8EE0C1A83ED023A80ED021A99
:100D6000C1ED023AB0EE430A82ED022AB0EE441A17
:100D7000F0EE610A03F0C2FE83ED020A90ED020A72
:100D8000B0EE441AF0EE610A03F0B8FE80ED020AFC
:100D900091ED020AB0EE441AF0EE610A03F0AEFEE5
:100DA00081ED020A92ED020AB0EE441AF0EE610AF9
:100DB00003F0A4FE82ED020A00BD0000505900209D
:100DC000100100200C0100205C5900207059002007
:100DD00084590020985900201CB50121082001F0F9
:100DE000DBF90820009000208DF8040003208DF826
:100DF000050001208DF807006946024800F0B8F9A7
:100E00001CBD0000000C0240F0B5012189B008466D
:100E100001F0CEF90121032001F0BEF903258DF880
:100E2000055002264FF400408DF8046001242B4F3A
:100E300000908DF806408DF807406946384600F06E
:100E400097F98DF805508DF804608DF806408DF8FF
:100E500007400820224C00906946204600F088F99F
:100E600001220F21384600F0BFF90122032120465C
:100E700000F0BAF902A802F023F900244FF6FF703F
:100E8000ADF8084003907507ADF81040ADF80A4082
:100E900002A9284602F0D6F800231A460321284664
:100EA00001F01DFF05A801F095FFADF81C4005A954
:100EB000284601F039FF0121284601F0F5FE012204
:100EC0001146284601F08EFF0021284602F090F8D6
:100ED0000121284601F0EEFE09B0F0BD00000240FD
:100EE0000004024030B589B00121022001F060F910
:100EF0000121022001F050F93020039003208DF8E9
:100F0000110002208DF8100001208DF81200224CF3
:100F10008DF8130003A9204600F02AF902220421CB
:100F2000204600F061F902220521204600F05CF91C
:100F3000684602F0C5F800244FF6FF70174DADF873
:100F400000400190ADF80840ADF8024069462846DF
:100F500002F078F800231A460321284601F0BFFE6C
:100F600005A801F037FFADF81C4005A9284601F09F
:100F7000DBFE0121284601F097FE0122114628469A
:100F800001F030FF0021284602F032F80121284606
:100F900001F090FE09B030BD0004024000040040A2
:100FA00030B589B00121042001F002F901210220AD
:100FB00001F0F2F8C020039003208DF81100022008
:100FC0008DF8100001208DF81200224C8DF81300CE
:100FD00003A9204600F0CCF802220621204600F0AA
:100FE00003F902220721204600F0FEF8684602F0CD
:100FF00067F800244FF6FF70174DADF800400190E0
:10100000ADF80840ADF802406946284602F01AF8EB
:1010100000231A460321284601F061FE05A801F0CD
:10102000D9FEADF81C4005A9284601F07DFE01213E
:10103000284601F039FE01221146284601F0D2FE71
:101040000021284601F0D4FF0121284601F032FE9C
:1010500009B030BD000402400008004030B589B03E
:101060000121082001F0A4F80121084601F094F8BC
:10107000274C02220021204600F0B6F8022201216E
:10108000204600F0B1F802218DF811108DF81010F3
:10109000012103208DF8121003908DF8131003A97D
:1010A000204600F065F8684602F00AF800244FF682
:1010B000FF70184DADF800400190ADF80840ADF854
:1010C00002406946284601F0BDFF00231A4603216D
:1010D000284601F004FE05A801F07CFEADF81C4096
:1010E00005A9284601F020FE0121284601F0DCFD7B
:1010F00001221146284601F075FE0021284601F024
:1011000077FF0121284601F0D5FD09B030BD000070
:1011100000000240000C00407CB50121042001F0D9
:101120003BF80720009001208DF8040000248DF882
:10113000064003208DF805000C4D8DF807406946E8
:10114000284600F015F80121284600F066F8042131
:10115000284600F060F8082000908DF804408DF8D3
:1011600007406946284600F003F87CBD00080240AD
:10117000F0B5002201274FF0030C0B6807FA02F5C7
:101180002B40AB422CD1066853000CFA03F4A64363
:1011900006600E79D0F800E09E4046EA0E06066032
:1011A0000E79012E01D0022E12D18668A6438660E8
:1011B0004E79D0F808E09E4046EA0E068660466802
:1011C000AE43466045688E799640B6B23543456079
:1011D000C568A543C560CC799C40C3681C43C46006
:1011E000521C102AC9D3F0BD4B07DB0E9A40C90828
:1011F00010B500EB8100016A0F249C40A1430162FD
:10120000016A1143016210BD0246002012690A42C0
:1012100000D0012070474183704701837047000070
:1012200010B50A4C0146072301222046FFF734FB84
:101230002046FFF76BFB02212046FFF700FB00284A
:10124000F9D02046BDE81040FFF7F6BA0020014073
:1012500010B50A4C0146072301222046FFF71CFB6C
:101260002046FFF753FB02212046FFF7E8FA00284B
:10127000F9D02046BDE81040FFF7DEBA002101405A
:1012800010B4334C31489FED341A94ED000A0378C2
:1012900030483249324AF1EE400A092B24D2DFE8C5
:1012A00003F02305080B1013181B200080ED000A23
:1012B0000CE080ED000A01E080ED001AC1ED000AAB
:1012C00022E0C0ED000AF9E7C0ED000A81ED001A46
:1012D0001AE0C0ED000A01E080ED001A81ED000A7D
:1012E00012E080ED000AF9E71E4B80ED001A81ED57
:1012F000001A1B78DFED1C0A012B18D01B4B1B7842
:10130000012B19D082ED001AD0ED000A9FED181ABA
:1013100080EE810A80ED000AD1ED001AC1EE810A4B
:10132000C1ED000A92ED001A10BCFFF7EBBC80EE95
:10133000201A9FED100A03E080EE201A9FED0E0A9E
:1013400021EE000A82ED000ADEE70000F100002035
:10135000D4000020F800002000000000FC00002065
:1013600000010020160100200000FA4317010020B0
:1013700000007A44DB0FC93FDB0FC9BF10B5022064
:1013800000F090FF264C2060032000F08BFF60608F
:10139000042000F087FFA060052000F083FFE060DC
:1013A000D4ED010AA16894ED000AF8EEE02A494262
:1013B00000EE901A4042B8EEC00AB8EEE02A00EE05
:1013C000900A9FED181A1848F8EEE01A60EE010A2C
:1013D00090ED000A154862EE812A20EE803AD0EDA9
:1013E000000A22EE012A62EE802AC3EE203A22EEA3
:1013F000002A21EE811A0E4821EE000A82EEA03A60
:10140000C0ED003A0B48C2EE202A80ED003A0A48AF
:1014100080EE201AC0ED002A084880ED001A10BDA9
:10142000AC5900200000C84208010020040100203F
:101430005C590020705900208459002098590020E0
:101440002DE9F04100250E4607462C4608E03846B7
:10145000FFF7E6FE0544052002F06CFA641CE4B2D6
:10146000B442F4D3B5FBF6F080B2BDE8F0810000E1
:1014700010B50820FFF7ECFE04F0DFFF9FED0E1B18
:1014800053EC112B04F0ECFF9FED0D1B53EC112BD3
:1014900004F0E6FF9FED0C1B53EC112B04F0E0FF72
:1014A0009FED0B1B53EC112B04F0DAFF04F0D4FE7C
:1014B00000EE100A10BD00006666666666660A40A9
:1014C00000000000000026400000008014AEEF3F46
:1014D000000000000000303FFEE7000070B50D4C3A
:1014E0000025C4F8A8520C48016821F440010160AD
:1014F000016841F480010160C4F8AC52012004F598
:101500002A7402F033FA0120206002F02FFA2560DD
:1015100070BD000000804042000402401CB5012163
:10152000022000F039FE4FF44060012400908DF855
:10153000044000208DF8060003208DF805008DF88A
:10154000074069460448FFF713FE0448C0F8A84264
:10155000C0F8AC421CBD00000004024000804042C4
:1015600070B50D4C0026C4F8A8620C48016821F43F
:1015700040010160016841F4800101600125C4F867
:10158000AC52284604F52A7402F0F0F925600120D7
:1015900002F0ECF9266070BD008040420004024079
:1015A0002DE9F047814618480025016821F44001E3
:1015B000016001680160154E2C462F464FF001086E
:1015C000C6F8A872012002F0D1F9C6F8A882680610
:1015D000D6F82C12000E11B140F0010501E020F008
:1015E0000105012002F0C2F9641CE4B2082CE7D323
:1015F000B9F1000F04D0FFF7B3FF2846BDE8F0872C
:10160000FFF76CFFF9E70000000402400080404251
:1016100070B50D46044600F01BF8204600F0B0F807
:1016200000F05EF8284600F0ABF800F059F800F042
:101630000FF844F0010000F0A3F800F051F8012089
:10164000FFF7AEFF044600F02BF8204670BD000007
:1016500070B51148016821F440010160016841F44E
:10166000800101600D4C0120C4F8AC02D4F82C12AA
:1016700000290FD0C4F8A80202F078F90025C4F8B8
:10168000AC52D4F82C02002804D1012002F06EF9EB
:10169000C4F8A85270BD000000040240008040421F
:1016A0000D4810B5016821F440010160016841F462
:1016B00080010160094C0020C4F8A802C4F8AC0203
:1016C000012004F52A7402F051F9012020606060C5
:1016D000BDE8104002F04AB90004024000804042D8
:1016E00070B512480024016821F4400101600168CE
:1016F00001600F4D0126C5F8AC62304602F036F9A4
:10170000C5F8A86207E0641CE4B2322C03D9FFF7E5
:10171000C7FF002070BD012002F028F9D5F82C0287
:101720000028F0D1C5F8A802012070BD00040240D5
:10173000008040422DE9F0411D4614460F46804688
:10174000069EFFF765FF621CFF21C4F1080301FA42
:1017500002F22B445B1ED9400A43C5F108018E40BA
:10176000D2B2F1B2C4F10703D940104040EA0102FD
:101770003946404600F034F80120BDE8F081000011
:101780002DE9F04105461448016821F4400101604B
:10179000016841F480010160104E0027C6F8A8726C
:1017A0003C464FF00108E809C6F8AC026806050E91
:1017B000012002F0DBF8C6F8A882012002F0D6F87A
:1017C000C6F8A872012002F0D1F8641CE4B2082C1B
:1017D000E9D3BDE8F08100000004024000804042EF
:1017E00070B515460E460446FFF732FF2046FFF758
:1017F000C7FFFFF775FF3046FFF7C2FFFFF770FF27
:101800002846FFF7BDFFFFF76BFFFFF749FF0120F9
:1018100070BD0000174830EEC00A1749D0ED070A26
:10182000174A91ED001A70EE600A144960EE810AC1
:1018300091ED001A41EE000A90ED061A70EE810A51
:1018400010EE901AC0ED060A914203DDDFED0D0A9D
:10185000C0ED060A10EE901A0B4A914203D9DFED53
:101860000B0AC0ED060A80ED070ABDEEE00A10EE95
:10187000100A704720010020E8000020EC00002042
:101880000078824600788246007882C6007882C658
:10189000174830EEC00A1749D0ED0A0A174A91EDF1
:1018A000001A70EE600A144960EE810A91ED001A88
:1018B00041EE000A90ED091A70EE810A10EE901ABE
:1018C000C0ED090A914203DDDFED0D0AC0ED090A02
:1018D00010EE901A0B4A914203D9DFED0B0AC0EDCE
:1018E000090A80ED0A0ABDEEE00A10EE100A704700
:1018F00020010020E8000020EC0000200078824653
:1019000000788246007882C6007882C6174830EE9A
:10191000C00A1749D0ED0D0A174A91ED001A70EE72
:10192000600A144960EE810A91ED001A41EE000A46
:1019300090ED0C1A70EE810A10EE901AC0ED0C0AB0
:10194000914203DDDFED0D0AC0ED0C0A10EE901A96
:101950000B4A914203D9DFED0B0AC0ED0C0A80ED72
:101960000D0ABDEEE00A10EE100A704720010020BB
:10197000E8000020EC0000200078824600788246D3
:10198000007882C6007882C6174830EEC00A174930
:10199000D0ED100A174A91ED001A70EE600A144952
:1019A00060EE810A91ED001A41EE000A90ED0F1AE7
:1019B00070EE810A10EE901AC0ED0F0A914203DD1D
:1019C000DFED0D0AC0ED0F0A10EE901A0B4A91429E
:1019D00003D9DFED0B0AC0ED0F0A80ED100ABDEE52
:1019E000E00A10EE100A704720010020E8000020F5
:1019F000EC0000200078824600788246007882C69B
:101A0000007882C61CB50121102000F0C5FB002122
:101A10008DF80410032101208DF8051000908DF839
:101A2000070069460148FFF7A3FB1CBD00100240F8
:101A300010B5322001F034FE01280BD107490648C9
:101A40000A68026089888180064905480A68026040
:101A50008988818010BD000090010020960100203F
:101A60009C010020A20100207CB50121084600F065
:101A700093FB01208DF8040000228DF8062003213D
:101A80008DF80510074D4FF480548DF80700009431
:101A900069462846FFF76CFB21462846FFF7BDFB49
:101AA0007CBD00000000024000EE900A41421E4A48
:101AB000B8EEE01A00EE901A00B592ED010AF8EEC9
:101AC000E00A03F01BF800EE900A82ED010A174AC3
:101AD000B8EEE01A00EE901A92ED010AF8EEE00A74
:101AE00003F00CF800EE900A82ED010A104AB8EEFD
:101AF000E01A00EE901A92ED010AF8EEE00A02F008
:101B0000FDFF00EE900A82ED010A0A4AB8EEE01AE3
:101B100000EE901A92ED010AF8EEE00A02F0EEFFF4
:101B200082ED010A00BD00005C59002070590020C0
:101B30008459002098590020BC2801D3012210E0CC
:101B4000622801D302220CE02A2801D3032208E0F4
:101B5000142801D3042204E00A2801D3052200E05E
:101B600006221A21D020FFF73BBE10B504464FF4E1
:101B70007A70844201D9044602E0042C00D2042485
:101B8000B0FBF4F0401EC2B21921D020FFF728FEAE
:101B90006008BDE81040FFF7CFBF10B580226B2171
:101BA000D020FFF71DFEC82001F0C4FE00226B21EB
:101BB000D020FFF715FE012000F03AF8002000F0D9
:101BC0002EF83220FFF7D1FF00223821D020FFF776
:101BD00007FE00226A21D020FFF702FE0022232107
:101BE000D020FFF7FDFD80223721D020FFF7F8FD40
:101BF0007521D020FFF70CFD682801D0012010BD11
:101C000001226B21D020FFF7EBFD00226C21D020B8
:101C1000FFF7E6FD3220FFF7A8FF002010BD08B552
:101C20000223009004221C21D020FFF783FD08BD71
:101C300008B50223009004221B21D020FFF77AFD73
:101C400008BD000008B501F0BFFE0D4C4FF47A75D9
:101C500000900A21684603F0FDFA2068A8420ADADB
:101C6000401C2060606820612089A082D4F80A00AE
:101C7000E061E089208400F049F800F003F8E8E72B
:101C80008001002070B53C21D020FFF7C1FC044644
:101C90003B21D020FFF7BCFC04EB00201A4C3E2176
:101CA0002080D020FFF7B4FC05463D21D020FFF76F
:101CB000AFFC05EB002060804021D020FFF7A8FC9E
:101CC00005463F21D020FFF7A3FC05EB002000B222
:101CD000A4F10A01A0800968B1F57A7F12DB04F152
:101CE00018032188198062885A8098809B1F1D885C
:101CF000491B21805988511A61809988401A00F542
:101D00008040A08070BD00008A01002070B5442191
:101D1000D020FFF77DFC04464321D020FFF778FC5C
:101D200004EB00201F4C46212080D020FFF770FCE0
:101D300005464521D020FFF76BFC05EB00206080B5
:101D40004821D020FFF764FC05464721D020FFF74B
:101D50005FFC05EB002000B2211FA08009684FF452
:101D60007A75114A114BA94203DA012018601070EC
:101D700070BDA94201D1002111704FF49671196014
:101D8000084B21881233198062885A8098809B1FE3
:101D90001D88491B21805988511A61809988401AF1
:101DA000A08070BD84010020D000002034000020FD
:101DB000FEE7704730B50F23C27801780125FAB1EC
:101DC000144A126801F1E02102F4E062C2F5E06217
:101DD000C2F30722C2F10404D3404278A2408478BF
:101DE0001C401443220181F80024007800F01F01F8
:101DF0008D404009800000F1E020C0F8005130BD66
:101E000001F01F0085404809800000F1E020C0F883
:101E1000805130BD0CED00E00249084302490860E2
:101E2000704700000000FA050CED00E010B400213E
:101E3000084B0A46002003EBC004401CC0B26254A9
:101E40008028F8D3491CC9B20829F3D310BC00F08C
:101E5000B9B80000A801002010B57F2816D83F2986
:101E600014D80723A3EBD10301F00701C1F1070444
:101E70000121A140064CDBB204EBC000002AC25C89
:101E8000C9B201D00A4300E08A43C25410BD000029
:101E9000A80100207CB50121082000F07DF9012671
:101EA0008DF8046000244FF4F0408DF80640009057
:101EB0008DF805408DF8074069464048FFF758F90E
:101EC0000121080700F074F9012000F05FF90020FB
:101ED00000F0DAF9002000F059F9394DC5F8B042A8
:101EE000642005F52C7501F025FD2E600021AE2043
:101EF00000F02AF90021D52000F026F90021502019
:101F000000F022F90021A82000F01EF900213F2056
:101F100000F01AF90021D32000F016F9002108463C
:101F200000F012F90021402000F00EF900218D2070
:101F300000F00AF90021142000F006F90021202009
:101F400000F002F90021022000F0FEF80021A1209B
:101F500000F0FAF80021C02000F0F6F80021DA20A5
:101F600000F0F2F80021122000F0EEF800218120AC
:101F700000F0EAF80021EF2000F0E6F80021D92077
:101F800000F0E2F80021F12000F0DEF80021DB2073
:101F900000F0DAF80021302000F0D6F80021A4206B
:101FA00000F0D2F80021A62000F0CEF80021AF20EA
:101FB00000F0CAF8FFF73AFF7CBD0000000C0240B9
:101FC0000080414270B5104E002505F1B000C0B24E
:101FD000002100F0B9F80021084600F0B5F8002112
:101FE000102000F0B1F8002406EBC4000121405D90
:101FF00000F0AAF8641CE4B2802CF5D36D1CEDB29D
:10200000082DE2D370BD0000A80100202DE9F04F9B
:10201000203A98460D468346894602F0FF0A00267C
:102020002EE0B8F10C0F08D0174901EB0A10002779
:10203000845D200607D5099A08E014490AEB4A0096
:1020400001EB8000F3E7099890B100222946584639
:10205000FFF702FF6D1C6006EDB2040EA5EB09014F
:10206000414507D10BF101004D4600F0FF0B05E0A3
:102070000122EBE77F1CFFB2082FDAD3761CF6B201
:102080004645CED3BDE8F08FB86C00084468000820
:102090002DE9FF4F81B00027DDF838B01D4692468C
:1020A00080463C464FF001094FEA5B0627E0281BBB
:1020B000401EC1B20A2001F0C1FCBAFBF0F00A21B7
:1020C000B0FBF1F201FB120027B9691E8C4201DA64
:1020D00048B101273030C2B206FB0480C0B25B4673
:1020E000CDF8009006E006FB0480C0B25B462022DB
:1020F000CDF800900299FFF789FF641CE4B2AC426E
:10210000D5D305B0BDE8F08FF8B516460D460446A8
:10211000012714E07A2C02D900241035EDB23A2DB3
:1021200003D900242546FFF781FE009732780C235F
:1021300029462046FFF76AFF0834E4B2761C30785F
:102140000028E7D1F8BD000030B500230E4A012475
:1021500011B1C2F8AC4201E0C2F8AC320021C2F8C1
:10216000B832050602D5C2F8B44201E0C2F8B43272
:10217000C2F8B8424006491C000EC9B20829EED385
:10218000C2F8AC4230BD0000008041420149086203
:102190007047000000000E42044A0029116801D077
:1021A000014300E081431160704700003038024075
:1021B000044A0029116801D0014300E08143116005
:1021C0007047000040380240044A0029116801D0DD
:1021D000014300E081431160704700004438024031
:1021E000044A0029116801D0014300E081431160D5
:1021F000704700002438024070B5204B1968204C0D
:1022000011F00C0104D06610042903D0082903D072
:1022100004601BE0066019E0184A121F1168C1F340
:102220008055116801F03F0115B1B6FBF1F101E0F5
:10223000B4FBF1F114681268C4F388146143C2F36B
:102240000142521C5200B1FBF2F1016019680F22E9
:1022500002EA11110B4A545C0168E14041601C68BC
:10226000072505EA9424145D21FA04F484601B68B0
:1022700005EA5333D25CD140C16070BD08380240DA
:102280000024F4004C000020054900220A700A7066
:10229000012802D0042801D10520087070470000F1
:1022A000703802400021022807D003280BD00428F0
:1022B0000BD005280BD0002070474FF08042506AA9
:1022C000516200B27047044A02E0044A00E0044A46
:1022D0001068116000B270472404004024080040D8
:1022E000240C004010B551EC100B2DED048BF0EEDA
:1022F000438AB0EE629AF0EE429AB0EE418A03F061
:10230000ABFFBDEEE90A134910EE102ABDEEC90A73
:10231000086081ED018A10EE103AC1E90223C1ED97
:10232000048A9900514300EE101A0B49B8EEC00A16
:1023300081ED000A9FED090A094928EE800A81ED26
:10234000000A08490860084880ED008ABDEC048B4B
:1023500010BD0000BC59002004010020DB0F4940E3
:10236000080100200C0100201001002010B5114CC4
:102370004FF4AD700A2120600920FFF761F8216851
:1023800090FBF1F00C49C0B20528087001D9052076
:102390000870BDE810409FED093AF2EE0A2AB3EE4C
:1023A0000E2ADFED071A9FED071A9FED070BFFF7C7
:1023B00099BF0000F4000020D10000208FC2753DBD
:1023C00000000000FA61143E00000060E3A5B33F86
:1023D0000CB50022274900920192086840F4803031
:1023E00008604FF4A043086800F4003001900098A2
:1023F000401C0090019810B900989842F3D10868E9
:10240000800334D5012001901A484030026842F020
:10241000805202601848026842F440420260154847
:10242000083002680260026842F4004202600268FA
:1024300042F4A0520260031F104A1A600A6842F078
:1024400080720A600A689201FCD50D4940F205725B
:102450000A60016821F003010160016841F0020196
:1024600001600168C1F381010229FAD10CBD01921A
:102470000CBD0000003802400070004008544007C6
:10248000003C0240F0B5174E174F059D44F29F14D3
:10249000002803DA34602044386002E03C60201AEF
:1024A00030601248002903DA44632144816302E06A
:1024B0008463611A41630E48002A03DA84631119A8
:1024C000416302E04463A11A8163002B03DA0464D0
:1024D0001919C16302E0C463E11A0164054805608B
:1024E000F0BD000034440140344801400040014048
:1024F000000001403818004000B5B0EE412AF0EE6F
:10250000602AB0EE401A9FED490A4948D0ED001A02
:10251000DFED480AB5EEC01AF1EE10FA02DD71EEF9
:10252000801A0EE0B5EEC01AF1EE10FA02D271EE8A
:10253000C01A06E0B5EEC01AF1EE10FA03D161EE52
:10254000A01AC0ED001A3A49F5EEC02AD1ED011AE1
:10255000F1EE10FA02DD71EE801A0EE0F5EEC02AFF
:10256000F1EE10FA02D271EEC01A06E0F5EEC02AC2
:10257000F1EE10FA03D161EEA01AC0ED011A2C4958
:10258000B5EEC02AD1ED021AF1EE10FA02DD31EEFD
:10259000800A0EE0B5EEC02AF1EE10FA02D231EE5A
:1025A000C00A06E0B5EEC02AF1EE10FA03D121EE22
:1025B000A00A80ED020AB0EE410A01F0F1F9F0EE56
:1025C000400AB0EE410A01F0EBF9F1EE401AB0EE2C
:1025D000601A90ED000AF0EE610A02F08FFA80EDC9
:1025E000000AB0EE620A01F0DBF9B0EE401AB0EE7C
:1025F000620A01F0D5F9F1EE400A90ED010A02F00D
:102600007DFA80ED010AB0EE420A01F0C9F9B0EEA0
:10261000401AB0EE420A01F0C3F9F1EE400A90ED23
:10262000020A02F06BFA80ED020A00BD0AD7233CD1
:10263000505900206666663F4FF0E0210428086983
:1026400003D020F004000861704740F00400FAE76E
:1026500010B503F0A5FB012803D0BDE8104003F03E
:1026600093B810BD124810B5016841F470010160C3
:102670001048016841F0010101600E4A0021083252
:10268000116002680C4B1A400260031D0B4A1A606D
:10269000026822F48022026006480C300160FFF7D5
:1026A00097FE03494FF000608039086010BD0000BC
:1026B00088ED00E000380240FFFFF6FE10300024F5
:1026C00070B5048C24F001040484058B048C4FF64F
:1026D000FF7606EA0313134325F0F3052B4324F09A
:1026E0000A020A4342F001010383018470BDF0B580
:1026F000048C24F010040484078B068C4FF6FF74BE
:1027000004EA011527F4734704EA0331394304EA64
:1027100002220A4326F0A001294341F0100102835E
:102720000184F0BD2DE9F041884607468AB00121B9
:102730000220FFF731FD01214804FFF745FD1F4E40
:10274000032208213046FEF74FFD02208DF80400D9
:102750000024C0018DF80640012500908DF8075037
:1027600003208DF8050069463046FEF701FD144E42
:10277000ADF808800397ADF81040ADF80A4002A903
:10278000304600F05FFC6020ADF81400ADF8165044
:10279000ADF8204005A9304600F02CFB082130465A
:1027A00000F058FB0121304600F074FA0121304658
:1027B00000F080FA0AB0BDE8F08100000004024099
:1027C000004401402DE9F041884607468AB00121C6
:1027D0000220FFF7E1FC01218804FFF7F5FC214E00
:1027E000032209213046FEF7FFFC02208DF8040089
:1027F000002400028DF80640012500908DF8075056
:1028000003208DF8050069463046FEF7B1FC164EF0
:10281000ADF808800397ADF81040ADF80A4002A962
:10282000304600F00FFC6020ADF81400ADF81650F3
:10283000ADF8204005A9304600F0DCFA082130460A
:1028400000F008FB0121304600F03EFA012130463D
:1028500000F020FA0121304600F02CFA0AB0BDE861
:10286000F081000000040240004801402DE9F041E1
:10287000884606468AB001214020FFF799FC0121D5
:102880000220FFF789FC02208DF818004FF4404029
:10289000059003208DF819000024274F8DF81A4069
:1028A00001258DF81B5005A93846FEF761FC092269
:1028B0000E213846FEF798FC09220F213846FEF714
:1028C00093FC08961D4EADF81C80ADF82440ADF881
:1028D0001E4007A9304600F0B5FB6020ADF80000AF
:1028E000ADF802500294ADF80C40ADF810406946C6
:1028F000304600F07FFA6946304600F0B1FA082110
:10290000304600F0A7FA0821304600F0E9FA01212C
:10291000304600F0BFF901221146304600F062FA5D
:102920000121304600F0D0F90121304600F0C2F913
:102930000AB0BDE8F0810000000402400018004029
:102940002DE9F0418846074601218AB00846FFF785
:102950003BFC01211020FFF71FFC354E012209210D
:102960003046FEF741FC01220B213046FEF73CFCCD
:1029700001220D213046FEF737FC01220E213046A0
:10298000FEF732FC4FF4D440059002208DF8180079
:1029900003208DF8190000248DF81A4001258DF8C8
:1029A0001B5005A93046FEF7E3FB224EADF81C8014
:1029B0000897ADF82450ADF81E4007A9304600F046
:1029C00041FB6020ADF80000ADF80250ADF80C40BE
:1029D0006946304600F00EFA6946304600F040FA8B
:1029E0006946304600F086FA6946304600F0C6FA7D
:1029F0000121304600F068F90821304600F02AFA3B
:102A00000821304600F06CFA0821304600F0B0FA98
:102A10000821304600F0E2FA0121304600F03AF990
:102A20000121304600F046F90AB0BDE8F08100000F
:102A300000100240000001404FF08040018A018AEE
:102A400021F001010182704703480188018821F0CB
:102A50000101018070470000100400400348018814
:102A6000018821F00101018070470000100800403A
:102A700003480188018821F00101018070470000AE
:102A8000100C004010B50F4C0121204600F040F919
:102A9000002815D00C480D49006808B1086801E00D
:102AA00000200860401C086008210948FEF7ACFBC4
:102AB000084908602046BDE81040012100F0F7B841
:102AC00010BD000000180040D8000020DC000020ED
:102AD00000080240E40000202DE9F0418846064647
:102AE0008AB001210220FFF76FFB01210420FFF7CC
:102AF00053FB02208DF818004FF4707005900320EE
:102B00008DF8190000242F4F8DF81A4001258DF8FB
:102B10001B5005A93846FEF72BFB03220621384639
:102B2000FEF762FB032207213846FEF75DFB032216
:102B300008213846FEF758FB032209213846FEF7E4
:102B400053FB0896204EADF81C80ADF82440ADF83C
:102B50001E4007A9304600F075FA6020ADF800006D
:102B6000ADF802500294ADF80C40ADF81040694643
:102B7000304600F03FF96946304600F071F9694689
:102B8000304600F0B7F96946304600F0F7F9082101
:102B9000304600F05FF90821304600F0A1F9082125
:102BA000304600F0E5F90821304600F017FA01211F
:102BB000304600F089F80121304600F07BF80AB079
:102BC000BDE8F0810008024000040140024801888D
:102BD00021F0010101807047100401402DE9F0430C
:102BE0008946804601218BB00804FFF7EDFA0121E8
:102BF0001020FFF7D1FA254F032205213846FEF7B2
:102C0000F3FA032206213846FEF7EEFA02208DF889
:102C1000180003208DF81900002460268DF81A4052
:102C2000012505968DF81B5005A93846FEF7A0FA38
:102C3000174FADF81C90CDF82080ADF82440ADF8CA
:102C40001E4007A9384600F0FDF9ADF80060ADF868
:102C50000250ADF80C406946384600F0CBF86946A2
:102C6000384600F0FDF80821384600F0F3F8082156
:102C7000384600F035F90121384600F00BF8012103
:102C8000384600F017F80BB0BDE8F08300100240A2
:102C9000004001400029018802D041F0800101E09C
:102CA00021F0800101807047C94301827047C94308
:102CB000018270470029018802D041F0010101E042
:102CC00021F0010101807047002930F8441F02D033
:102CD00041F4004101E0C1F30E010180704770B57D
:102CE0000589048B068C25F007050D434FF6FC4142
:102CF0000C4040F201110C434FF6FF7101EA031141
:102D000026F022061143314305810483018470BDFE
:102D100002460020138A92890B4202EA010202D085
:102D2000002A00D0012070472DE9F0410C460E88A2
:102D30004988A2882389054616B3042E28D0082E78
:102D40002E8C4FF6FF702BD026F480562E84AF8B3E
:102D50002E8C00EA022200EA013127F473473A433D
:102D600000EA0330104326F420420A4342F4805123
:102D7000A8832984E1882846BDE8F04100F056B9CF
:102D8000FFF79EFCE1882846BDE8F04100F032B92B
:102D9000FFF7ADFCE1882846BDE8F04100F032B90C
:102DA00026F480762E84AF8B2E8C00EA012100EA77
:102DB0000310104327F0F307384326F420620A4338
:102DC00042F48071A8832984E1882846BDE8F04157
:102DD00000F024B900210180418001228280C1805D
:102DE00001817047002A828901D00A4300E08A43AA
:102DF0008281704730B5028C22F001020284028C7D
:102E00008388048B22F0020224F073050C882C4383
:102E10008D8915434A882A430C4DA84202D00C4D97
:102E2000A8420DD122F00805CA8923F440732A4331
:102E300022F004058A882A430D8A1D434B8A2B43BE
:102E40008380048389684163028430BD00000140AF
:102E500000040140028B22F008020A4302837047FB
:102E600070B5028C22F010020284028C8388048BDD
:102E70000D8824F4E6464FF6FF7404EA0525354331
:102E80008E8922F0200204EA061616434A8804EAD4
:102E900002123243104EB04202D0104EB04215D151
:102EA00022F08006CA8923F4406304EA0212324306
:102EB00022F040068A8804EA021232430E8A04EAAB
:102EC00086061E434B8A04EA8303334383800583CB
:102ED00089688163028470BD0000014000040140E4
:102EE000028B4FF6FF7322F4006203EA01211143C3
:102EF0000183704770B5028C22F480720284028CC8
:102F00008388848B0D8824F0730425438E894FF6C3
:102F1000FF7422F4007204EA062616434A8804EA83
:102F200002223243104EB04202D0104EB04215D1B0
:102F300022F40066CA8923F4405304EA0222324391
:102F400022F480668A8804EA022232430E8A04EA66
:102F500006161E434B8A04EA03133343838085839A
:102F60008968C163028470BD000001400004014013
:102F7000828B22F008020A438283704770B5028C6C
:102F800022F480520284058C8288838B0C8823F47F
:102F9000E6464FF6FF7303EA0424344325F4005653
:102FA0008D8903EA053535434E8803EA06362E43FC
:102FB000084DA84202D0084DA84205D122F4804510
:102FC0000A8A03EA82122A43828084838968016420
:102FD000068470BD0000014000040140828B4FF662
:102FE000FF7322F4006203EA0121114381837047D9
:102FF00041627047028B22F00C020283028B0A436B
:1030000002837047028B22F440620283028B4FF6E8
:10301000FF7303EA01210A4302837047828B22F087
:103020000C028283828B0A4382837047828B22F454
:1030300040628283828B4FF6FF7303EA01210A43C9
:103040008283704730B50288164C174DA0420DD0D0
:10305000A8420BD0B0F1804F08D0144B984205D055
:10306000134B984202D0134B984203D122F07003C5
:103070004A881A43104B984206D0104B984203D00E
:1030800022F440730A891A4302804A68C2620A889D
:103090000285A04201D0A84201D1897A018601218E
:1030A000818230BD00000140000401400004004066
:1030B00000080040000C00400010004000140040D8
:1030C0004FF0FF3141600021018001814180817218
:1030D000704700000A2809DB0C48D0F80C0228B120
:1030E0000B480078012801D000207047094A0120D0
:1030F00000211160084A1160084A51639163084A2F
:10310000916351631164D1637047000000804142B4
:10311000D0000020344401403448014000400140C8
:103120000000014070B5254C40F22551204600F0CA
:10313000F7F9E8B3204600F081FAC1B220480068F0
:10314000B0F57A7F37DB204A1E4C0025D0787B29EA
:10315000215400D028B1401CC0B2D0700B2802D03E
:1031600029E0D57027E0D570A07A7D2823D10021F1
:103170000920FDF7A9FD617A88421CD1134805702A
:1031800013480570134805702179E07800F05CFA67
:10319000114880ED000AA179607900F055FA0F48D6
:1031A00080ED000A217AE07900F04EFA0C4800E048
:1031B00001E080ED000A002070BD000000500040DA
:1031C00020010020E40500203C000020F000002049
:1031D0001501002064010020F8000020FC00002000
:1031E0000001002070B5294D40F22551284600F01D
:1031F00097F9E8B300240126284600F01FFAC1B26F
:1032000023480068B0F57A7F3DDB234B214D002237
:1032100018787B29295400D028B1401CC0B21870FE
:103220000B2802D02FE01A702DE01A70A87A7D28A2
:1032300029D10020295C401C4C400928FADB687A1F
:10324000A04200D0A6B91548017819B90121017032
:1032500013480270134802702979E87800F0F4F9F5
:10326000114880ED000AA979687900F0EDF900E0D5
:1032700009E00E4880ED000A297AE87900F0E4F9C7
:103280000B4880ED000A002070BD000000100140D6
:1032900020010020A80500203C000020140100208F
:1032A000F000002064010020F8000020FC00002055
:1032B0000001002000B5054B0022985C01F0F0FDF4
:1032C000521CD2B2182AF8D300BD0000B405002069
:1032D0002DE9F04140F225513E4800F021F9002847
:1032E00074D03C48001D00883B490968B1F57A7FDD
:1032F0006CDB3A4D0122002141280AD16B78412B29
:1033000007D1374B1C7824B91A70364B1970364BDD
:103310001970C4B26C70354B354E364F364D4B2854
:1033200008D0492808D04A2806D02D782DB1012D83
:1033300025D038E02A7026E02970A0F14105072D3C
:1033400001D86C1C01E0082801DC1C7000E0197039
:103350002A4B312807D0362808D0294B33280AD0E9
:1033600034280AD01FE0186838B12FE0186808BB6D
:10337000062018602AE0196028E01A6026E0432839
:1033800008D0472809D031703970412808D0452825
:1033900006D007E031703A7004E03270397001E015
:1033A000A0F14001197017499FED170A582802D063
:1033B000592805D00AE0D1ED000A30EE800A03E07A
:1033C000D1ED000A30EEC00A81ED000A0020BDE810
:1033D000F081000000440040800100203C000020FB
:1033E000F00000201401002015010020F100002051
:1033F000160100201701002018010020D80000202D
:10340000E0000020D40000200000C84270B5264C27
:1034100040F22551204600F083F8E0B3204600F04A
:103420000DF9C1B221480068B0F57A7F39DB214A35
:103430001F4C002590787B29215400D028B1401CD6
:10344000C0B290700B2802D02BE0957029E09570E7
:10345000A07A7D2825D100210920FDF735FC617A6D
:1034600088421ED114480570144805701448057030
:10347000144805702179E07800F0E6F8124880EDF4
:10348000000AA179607900F0DFF8104880ED000AA9
:10349000217AE07900E004E000F0D6F80C4880EDF5
:1034A000000A002070BD00000048004020010020FC
:1034B000E40500203C000020F00000201401002062
:1034C0001501002064010020F8000020FC0000200D
:1034D0000001002000B5054B0022985C01F0E8FCDB
:1034E000521CD2B2182AF8D300BD0000B405002047
:1034F00000B5054B0022985C01F0E4FC521CD2B2EE
:10350000182AF8D300BD0000B405002000298189E5
:1035100002D041F4005101E021F400518181704753
:1035200070B501F01F0501260024C1F3421306FA0D
:1035300005F2012B0FD0022B0FD0838A4FEA112105
:103540000088134206FA01F600EA060001D000B135
:103550000124204670BD8389F0E7038AEEE710B5A9
:10356000C1F3421301F01F040121A140012B07D038
:10357000022B07D01430002A026805D00A4304E069
:103580000C30F8E71030F6E78A43026010BD000007
:103590007FB50446008A0D46C98820F44050014397
:1035A0002182A08941F20C618843A9882A891143AC
:1035B0006A8902431143A181A08A20F44071A8893D
:1035C0000843A0826846FEF717FE1A48844202D0DC
:1035D0001948844201D1039800E00298A1890904A6
:1035E00000EBC00101EB0010296801D5490000E0A3
:1035F0008900B0FBF1F06422B0FBF2F109010B0984
:103600006FF018056B4300EB8300A3891D044FF096
:10361000320306D503EBC000B0FBF2F000F0070068
:1036200005E003EB0010B0FBF2F000F00F000843E0
:1036300020817FBD00100140001401408088C0F34C
:1036400008007047FEE7000070B501EB002004B2EF
:103650004FF47A7594FBF5F005FB10402DED028BCD
:1036600002F0D4FE9FED0B1B53EC112B02F0F8FE81
:1036700041EC180B94FBF5F002F0C8FE53EC182B4C
:1036800002F01CFE02F0E8FDBDEC028B00EE100A19
:1036900070BD0000FCA9F1D24D62503F70470000A0
:1036A00030B5224AD2F80042214B00212CB1D981F9
:1036B000D2F80052012425B106E0DC89641CDC81CB
:1036C000F6E71D7905B91C715D794DB91D79012D9C
:1036D00003D19D796D1C9D715C719C79022C04D085
:1036E000D2F80022012A04D005E0997199810220C4
:1036F00030BD197159719A79012A14D19A89521CD5
:1037000092B29A81824206D9DA89824203D29971B1
:103710009981012030BDD889B0F5FA7F03D999711C
:103720009981032030BD002030BD000000004242DE
:103730002000002008B500F047F9009032216846CB
:1037400001F088FD00F008F8FFF7B4FDFFF7C2FEB6
:10375000FFF7CEFEF2E700002DE9F04F5B4C4FF093
:103760007B087D2084F8188084F82E005848F5EEF8
:10377000002AD0ED001A574890ED001A564831EE55
:10378000810AD0ED000A554830EE202A90ED000A5B
:1037900032EE002A22EE223A9FED512ADFF850B194
:1037A000DFF850C123EE023ABDEEC33A13EE100A21
:1037B00031EEC13AF1EE611A00B231EEC11A33EEC8
:1037C000203A6083814671EE200A33EE403A30EEB3
:1037D000800A23EE223A20EE220A23EE023ABDEEC0
:1037E000C33A13EE100A07B23E48A783D0ED000A91
:1037F0003D4890ED001A30EE811AC0EE010A20EE2D
:10380000820ABDEEC00A10EE100A06B23748E683FF
:10381000B0F902506584018849420BB2A384B0F923
:103820000420E284BBF902102185BBF8000040426D
:1038300000B260859CF800C05FEA0C0A43D04FF0EC
:10384000000CA4F82CC0DFF8B0C09CED000A20EEFC
:10385000020ABDEEC00A10EE10CAA4F820C084F817
:10386000008084F801A04FEA192884F8028084F8C7
:1038700003904FEA172884F804806771370AA7710C
:10388000E6712E0A267265721D0AA572E372130A8A
:10389000237362730A0AA273E173010A21746074CC
:1038A000A08D010AA174E0744FEA1C20207584F8F1
:1038B00015C001211620FDF707FAA07594F82E0017
:1038C000E075BDE8F08FBBF804C0BAE7B40500208E
:1038D0005C5900207059002084590020985900201C
:1038E00000007A44100100200C0100208A01002011
:1038F00084010020D00000201800002010B50446EC
:103900000420FEF799FE0A484FF47A71047014FB04
:1039100001F1012242804FF0E020026942F00202F0
:1039200002614161016941F00101016110BD0000C6
:103930004000002070B5044602F032FA01280CD095
:10394000094D6888844203D3B4FBF0F001F04CFCCD
:103950006888B4FBF0F100FB11444FF47A706043C7
:10396000BDE8704000F002B84000002070B54FF094
:10397000E02500216C69094AAB6912785043AA69B5
:103980009A42FCD002D2A3EB020302E0A4EB0206AF
:103990003344194413468142F1D370BD40000020E6
:1039A000B5EEC00AF1EE10FA01DAB1EE400A704746
:1039B00004490A885206FCD5024AC1B2121D118080
:1039C000704700000044004010B502F0E9F90128FA
:1039D00003D0BDE8104002F0F1B90148406810BDC5
:1039E00040000020054C064DD4F8B002C043C4F896
:1039F000B002286801F0F8FBF6E700000000404242
:103A0000340000201CB501F023F807490120CDE95E
:103A100000010202002305A1074802F095F901F018
:103A200099FD00201CBD000000000020737461722D
:103A3000745F7461736B00008549000803460120C0
:103A400000E05843491EC9B2FBD2704770B5F44C30
:103A50004FF4AD702DED028B82B020600A21092059
:103A6000FDF7EEFCEF490860216890FBF1F0EE48AD
:103A700090ED000ADFEDED0AED4E4FF4806120EE8F
:103A8000200ABDEEC00A86ED050A3069401C30618F
:103A9000E848FCF762FDE8480C2400940021026825
:103AA00001230846FEF7F4FAE44800940123026873
:103AB00000211920FEF7ECFAE1A200213720FEF7E1
:103AC00023FBE04DB5F90400002809DADEA200214D
:103AD0005020FEF719FB0094B5F90400424207E0BC
:103AE000DAA200215020FEF70FFB0094B5F9042064
:103AF000052300215A20FEF7CBFAD5A20A21002087
:103B0000FEF702FBD34D95ED020A9FEDD38ADFED60
:103B1000D38AB5EEC00AF1EE10FA0AD2CAA20A217F
:103B20000F20FEF7F1FA009495ED020A20EE080A44
:103B300009E0C6A20A210F20FEF7E6FA009495EDEF
:103B4000020A20EE280A05230A211420BCEEC00A2E
:103B500010EE102AFEF79CFA95ED000AB5EEC00AA9
:103B6000F1EE10FA0AD2B8A20A213C20FEF7CCFAF4
:103B7000009495ED000A20EE080A09E0B3A20A219C
:103B80003C20FEF7C1FA009495ED000A20EE280AC9
:103B900005230A214B20BCEEC00A10EE102AFEF7C6
:103BA00077FAAFA214210020FEF7AEFAAD4D95EDE5
:103BB000020AB5EEC00AF1EE10FA0AD2A2A214214E
:103BC0000F20FEF7A1FA009495ED020A20EE080AF4
:103BD00009E09EA214210F20FEF796FA009495EDBD
:103BE000020A20EE280A142105230846BCEEC00A6A
:103BF00010EE102AFEF74CFA95ED000AB5EEC00A59
:103C0000F1EE10FA0AD290A214213C20FEF77CFAC1
:103C1000009495ED000A20EE080A09E08BA2142119
:103C20003C20FEF771FA009495ED000A20EE280A78
:103C3000052314214B20BCEEC00A10EE102AFEF71B
:103C400027FA89A21E210020FEF75EFA874D95ED26
:103C5000020AB5EEC00AF1EE10FA0AD27AA21E21CB
:103C60000F20FEF751FA009495ED020A20EE080AA3
:103C700009E076A21E210F20FEF746FA009495ED8A
:103C8000020A20EE280A05231E211420BCEEC00AD9
:103C900010EE102AFEF7FCF995ED000AB5EEC00A09
:103CA000F1EE10FA0AD268A21E213C20FEF72CFA8F
:103CB000009495ED000A20EE080A09E063A21E2197
:103CC0003C20FEF721FA009495ED000A20EE280A28
:103CD00005231E214B20BCEEC00A10EE102AFEF771
:103CE000D7F963A228210020FEF70EFA614D95ED69
:103CF000020AB5EEC00AF1EE10FA0AD252A2282149
:103D00000F20FEF701FA009495ED020A20EE080A52
:103D100009E04EA228210F20FEF7F6F9009495ED58
:103D2000020A20EE280A052328211420BCEEC00A2E
:103D300010EE102AFEF7ACF995ED000AB5EEC00AB8
:103D4000F1EE10FA0AD240A228213C20FEF7DCF95D
:103D5000009495ED000A20EE080A09E03BA2282114
:103D60003C20FEF7D1F9009495ED000A20EE280AD8
:103D7000052328214B20BCEEC00A10EE102AFEF7C6
:103D800087F93D48007801280AD03CA23221002062
:103D9000FEF7BAF93A48D0F80C02012802D004E044
:103DA00038A2F3E739480078C0B339A232212D2078
:103DB000FEF7AAF97069642590FBF5F2022332211F
:103DC0004B200094FEF764F932A232215820FEF70E
:103DD0009BF97069022390FBF5F105FB110232217A
:103DE00062200094FEF754F92BA232216E20FEF7D8
:103DF0008BF9706990FBF5F105FB11000A2806DAD2
:103E00000223002232215C200094FEF741F902B027
:103E1000BDEC028BBDE87040FEF7D4B81FA2C5E729
:103E2000F40000201C010020180000200000C842FF
:103E300068010020A8010020D8000020E400002034
:103E4000475A0000840100202D0000002B000000D4
:103E5000410000005C59002000007AC400007A4450
:103E600042000000705900204300000084590020E7
:103E70004400000098590020F0000020524F5300E9
:103E8000008041424150502020000000D00000201E
:103E90004F4646002E000000560000004F204E0006
:103EA0002DE9F041184E0F460446F5683068001DB4
:103EB00001F010F838B9306890F82C1001208840D3
:103EC000316981433161601C07D137B13168BDE888
:103ED000F0410E48091D01F035B830682C44AC4261
:103EE0004460316805D2B06BBDE8F041091D01F0B6
:103EF00011B8706B091D01F00DF8B06A844200D250
:103F0000B462BDE8F08100005C00002014090020CC
:103F10002DE9F041054601F021F82D4EB068401C16
:103F2000B06030682B4F10B1706930B32BE0356052
:103F3000B068012827D1002404EB840007EB80003F
:103F400000F0DAFF641C202CF6D3234800F0D4FFE5
:103F50002148143000F0D0FF1F48283000F0CCFF7B
:103F60001D483C3000F0C8FF1B48503000F0C4FF33
:103F7000194870631430B06305E03068E96AC06ABC
:103F8000884200D83560706A0121401C7062686404
:103F9000E86A326981401143316100EB800007EB30
:103FA0008000291D00F0CEFF01F014F87069002890
:103FB0000CD03068E96AC06A884207D207494FF0DE
:103FC00080500860BFF34F8FBFF36F8FBDE8F08163
:103FD0005C00002044060020C408002004ED00E03E
:103FE00010B500F0BBFF0E4C2068A0B90D4800F0E2
:103FF00083FF0C48143000F07FFF0A48E060143063
:10400000206100221021052001F0D4FB206010B1B6
:1040100005A101F0B5F8BDE8104000F0DBBF0000DD
:104020009800002028090020546D72510000000003
:1040300070B5124E124D1CE001F0D6FA306820B176
:10404000002401F0DBFFA4B901E00124F9E700F04E
:1040500085FFF068C468201D00F03CFFA868401E82
:10406000A8606868401E686000F0B4FF204600F059
:1040700052F868680028DFD170BD000000090020F8
:104080005C00002030B4026C0B46002A0BD0C168E3
:104090001144C1604468A14201D30168C16030BCD1
:1040A0001846FCF70DBA30BC70472DE9F041856B1E
:1040B000174604460026026C82B1C7B1E068FCF7DF
:1040C000FFF9E168206C091AE1602268914202D28E
:1040D0006168081AE060022F16D017E02068A8B9BE
:1040E000606801F0E5FE0646002060600EE0A06812
:1040F000FCF7E6F9216CA0680844A060616888427A
:1041000004D32068A06001E005B16D1E6D1CA5639D
:104110003046BDE8F08110B50446006B00F08CFF1E
:104120002046BDE8104000F087BF000010484FF463
:10413000A041420706D0C01D0D4920F00700411ADA
:10414000C1F5A0410B4A00230144C2E9000308392C
:10415000103A21F0070111604B600B600B1AC0E9A7
:10416000001393604FF000405360D0607047000030
:1041700050090020C8000020074E4FF08054074D22
:10418000FFF756FF30680128FAD92C60BFF34F8F34
:10419000BFF36F8FF4E700004406002004ED00E059
:1041A0002DE9F047DDE909840E4617468246910065
:1041B0009946089DA522206BFCF7C7F96FF0030113
:1041C000206B01EB8701084420F00707780705D032
:1041D00040F22B3219A11EA0FCF7CCF800202218C7
:1041E000315C82F83410315C11B1401C1028F6D3D8
:1041F000002684F84360202D00D31F25E562C4E922
:104200001356201D00F083FE04F1180000F07FFE1D
:104210002461C5F120006462A061666584F858607D
:104220004A465146384600F003FB2060B8F1000FC3
:1042300001D0C8F80040BDE8F08700002E2E5C4693
:1042400072656552544F535C7461736B732E6300D7
:104250004572726F723A25732C25640D0A000000B6
:1042600030B5114900E011460A688242FBD34B6821
:104270005C18844203D1406818444860084643688B
:104280001C18944209D1084C103C2468A24209D061
:1042900052681A4442600A6812680260814200D083
:1042A000086030BD0460F9E7C800002070B5002444
:1042B00041600B4D0061914206D8D11A826991424A
:1042C00006D2011D286907E09A4203D2994201D320
:1042D000012403E0011DE86800F01CFE204670BDCB
:1042E0009800002010B5044600F038FEA06B20B105
:1042F000002400F06FFE204610BD0124F9E7000005
:104300002DE9F34100980F460026846C2CB940F645
:10431000CE1216A11AA0FCF72DF8A06BE16B884213
:1043200005D340F6CF1211A115A0FCF723F8A06B1E
:10433000E16B88420CD294F945503A4669462046D2
:10434000FFF7B3FE0646681C05D06D1C84F8455087
:104350003046BDE8FC81606A0028F9D004F12400F1
:1043600001F000FE0028F3D00126F1E72E2E5C4676
:1043700072656552544F535C71756575652E6300A7
:104380004572726F723A25732C25640D0A00000085
:10439000F8B5054614480E46C068C068C468201DBC
:1043A00000F098FDE069012817D1A0692B4641195A
:1043B00032462046FFF77AFF78B1002003460146D7
:1043C00000902A46204601F0FFFE30B907494FF41D
:1043D000027201F11800FBF7CDFF616A01B02046BF
:1043E000BDE8F04008470000980000202C6100085C
:1043F00070B586B02F4E53E00198002806DADDE94B
:104400000301029A90470198002849DB039C6069E8
:1044100010B1201D00F05EFD05A800F0A7F80546CC
:1044200001980A283CD2DFE800F00505053B273853
:1044300005053B270298A169034601442A46204608
:10444000FFF734FF00282BD0616A20468847E069D7
:10445000012825D1002000900298A169002342186C
:104460001946204601F0B0FED0B940F2213212A127
:1044700017A0FBF77FFF13E00298A06128B94FF463
:104480004E720DA112A0FBF775FFA0692B464119D2
:104490001A462046FFF70AFF02E0204600F0CCFD56
:1044A00000231A4601A9306801F0C0F90028A3D101
:1044B00006B070BD980000202E2E5C4672656552D5
:1044C000544F535C74696D6572732E630000000075
:1044D0004572726F723A25732C25640D0A00000034
:1044E000F8B50D46064601F07FF8684600F03EF844
:1044F0000446009810B101F081FDF8BD1148ADB13E
:1045000001690968D9B10025311B2A46006800F00D
:1045100049FE01F073FD0028EFD10B494FF08050A8
:104520000860BFF34F8FBFF36F8FF8BDA642EBD883
:1045300001F064FD21463046FFF72AFFF8BD012552
:10454000E2E700009800002004ED00E00648416B1F
:10455000096829B1416BC968C968496881627047B7
:104560004FF0FF31FAE700005C00002070B505460F
:1045700001F024FC064E0446B068844203D200F0E9
:1045800009F8012000E0002028602046B46070BDDA
:1045900098000020F8B5184E26E0C068C468056889
:1045A000201D00F097FC616A20468847E0690128D9
:1045B0001AD1A0692844A84206D924616060211D4F
:1045C000F06800F0A7FC0FE00020034601460090D1
:1045D0002A46204601F0F8FD30B9084940F29232EF
:1045E00001F11800FBF7C6FEF06801680029D4D17C
:1045F0003169C6E90310F8BD980000202C6100085D
:1046000008484068401C05D040F20F1206A111A0D6
:10461000FBF7B0FE502080F31188BFF34F8FBFF33C
:104620006F8FFEE7AC0000202E2E5C46726565524F
:10463000544F535C706F727461626C655C52564487
:10464000535C41524D5F434D34465C706F72742E23
:10465000630000004572726F723A25732C25640D59
:104660000A000000084CE068016839B1002139B146
:104670000020FFF735FFFFF7BBFEF4E70121F6E767
:10468000C0680068F5E70000980000202DE9F041BF
:10469000044600F063FC94F9455004F1240610E050
:1046A000A06C20B100212046FFF72AFE04E0606ADA
:1046B00048B1304601F056FC08B100F087FE6D1E8F
:1046C0006DB2002DECDC4FF0FF3684F8456000F051
:1046D00081FC00F043FC94F9445004F1100709E018
:1046E000206948B1384601F03DFC08B100F06EFE8B
:1046F0006D1E6DB2002DF3DC84F84460BDE8F0411E
:1047000000F068BC2DE9F0410546002600F06CFF82
:10471000324F386808B9FFF709FDF86805424FD1F4
:10472000002D4DD0083568070BD005F00700C0F10B
:1047300008000544680704D0BF2229A132A0FBF776
:1047400019FE002D3CD07868854239D823491031B4
:104750000846046801E0214604466068A84202D287
:1047600020680028F7D13868B846844228D00E68FF
:104770002068086060680836401B10280ED9671949
:10478000780704D0EC2216A11FA0FBF7F3FD6068A8
:10479000401B786038466560FFF762FD6168D8F8B5
:1047A00004004246401AC8F80400D8F8083098427D
:1047B00000D29060D8F80C0001430020C4E9000149
:1047C00001F01CFC700705D04FF4967204A10EA0F6
:1047D000FBF7D0FD3046BDE8F0810000B8000020B6
:1047E0002E2E5C4672656552544F535C706F727426
:1047F00061626C655C4D656D4D616E675C6865619D
:10480000705F342E630000004572726F723A257338
:104810002C25640D0A0000000449086818B10868D6
:10482000026D521C02650868704700005C000020A1
:1048300010B5031F4FF080741C601B1F21F0010195
:104840001960191F044B0B6014390A60091F6FF0BF
:10485000020244380A6010BD0146000808B5FFF79F
:10486000B3F83F4E3F4FDFF800B1404D4FF0010924
:104870004FF000084FF0020A0090002464216846BF
:1048800000F0E8FC3A480068322801DA484603E0C4
:104890003338312802D24046C6F8A002A868012861
:1048A0000BD0E868012808D06868052809DA401CA0
:1048B0006860052805DA484606E04046C5F80480E9
:1048C000F5E7052802D14046C6F8A002FCF7D0FD66
:1048D000D7ED000A641C0A2C30EE200A87ED000A8E
:1048E000F4DBF0EE400AB2EE041A80EE810ADFED4E
:1048F000210A8BED000AC7ED000AA968012901D140
:10490000C5F808A0E968012901D1C5F80CA010EE8E
:10491000101A194A914204DB9FED180A8BED000A28
:1049200018E010EE100A16490844B0F5002F05D221
:10493000A868022802DA401CA8600BE010EE100AFA
:104940000F494942884205DAA868022802DAE86875
:10495000401CE860FBF7E0FFFFF778F88DE7000008
:10496000000040421C0000201800002068010020C8
:1049700020010020000000009A9949419A9949417C
:104980000000E0BE2DE9FC4100F0E8FA0426002416
:10499000CDE90064F70123463A4616A1194801F013
:1049A000D3F90325CDE900540023B20116A11A481A
:1049B00001F0CAF9CDE9005400233A4617A11A487C
:1049C00001F0C2F9CDE900540023802217A11A4852
:1049D00001F0BAF9CDE9006400233A4617A11A485C
:1049E00001F0B2F91948006800F08AFCBDE8FC410A
:1049F00000F0F0BA42616C616E63655F7461736B65
:104A0000000000007D0A00084D5055363035305FFB
:104A10007461736B00000000451C000873686F77B9
:104A20005F7461736B0000005D4800086C65645F33
:104A30007461736B00000000E53900084441544183
:104A40005F7461736B0000003537000800000020C0
:104A500070B54FF44070FDF7DFF9A820FEF74EFF68
:104A6000FDF702F8FCF758FBFCF714F9FCF7B4F972
:104A7000FDF710FAFCF7C6FF4FF4E134204600F0D2
:104A80004DF84FF41655284600F09EF8204600F0E9
:104A9000EFF8284600F044F9204600F093F9FBF7C0
:104AA0006DFFFBF7ABFFFDF761FCFCF7ADF9FCF721
:104AB00019FAFCF775FAFCF7D1FA44F29F140021B9
:104AC0002046FEF709F8532140F22B10FDF7CEFEE9
:104AD00000212046FDF734FF00212046FEF77EF836
:104AE00000212046FDF71EFE00212046FDF76AFE4C
:104AF000FCF714FDBDE87040FDF74FB8B4EEE00AD6
:104B0000F1EE10FA02D2B0EE600A7047B4EEC10ABC
:104B1000F1EE10FAF9DDB0EE410A7047F0B5074644
:104B2000012187B00846FDF737FB01211020FDF772
:104B30004BFB234E072209213046FCF755FB072289
:104B40000A213046FCF750FB4FF4C060049002206D
:104B50008DF8140000248DF816408DF815000125FD
:104B60008DF8175004A93046FCF702FB25208DF87C
:104B700018008DF819508DF81A408DF81B5006A8B2
:104B8000FDF718F9ADF80440ADF80640ADF808405F
:104B9000ADF80C400C200B4CADF80A0000976946AC
:104BA0002046FEF7F5FC012240F225512046FEF793
:104BB000D6FC01212046FEF7A9FC07B0F0BD00009D
:104BC0000000024000100140F0B5074687B0012107
:104BD0000820FDF7E1FA01214804FDF7E9FA224E29
:104BE000072205213046FCF7FFFA0722062130464E
:104BF000FCF7FAFA6020049002208DF814000024DB
:104C00008DF816408DF8150001258DF8175004A970
:104C10003046FCF7ADFA26208DF818008DF81950B3
:104C20008DF81A408DF81B5006A8FDF7C3F8ADF8B3
:104C30000440ADF80640ADF80840ADF80C400C203B
:104C40000A4CADF80A00009769462046FEF7A0FC22
:104C5000012240F225512046FEF781FC0121204629
:104C6000FEF754FC07B0F0BD000C024000440040C9
:104C70002DE9F041804688B001210820FDF78CFA2B
:104C800001218804FDF794FA234F072208213846B2
:104C9000FCF7AAFA072209213846FCF7A5FA0225F3
:104CA0008DF8145000244FF440708DF81640049095
:104CB0008DF8155001268DF8176004A93846FCF7C9
:104CC00057FA27208DF818008DF819508DF81A40E2
:104CD0008DF81B6006A8FDF76DF8ADF80440ADF83F
:104CE0000640ADF80840ADF80C400C200B4CADF878
:104CF0000A00CDF8008069462046FEF749FC0122F3
:104D000040F225512046FEF72AFC01212046FEF7FD
:104D1000FDFB08B0BDE8F081000C024000480040F7
:104D20002DE9F041804688B001210420FDF734FAD6
:104D30000121C804FDF73CFA204F08220A21384619
:104D4000FCF752FA02258DF81450002438158DF81E
:104D5000164004908DF8155001268DF8176004A9AF
:104D60003846FCF705FA34208DF818008DF81950F4
:104D70008DF81A408DF81B6006A8FDF71BF8ADF8FA
:104D80000440ADF80640ADF80840ADF80C400C20EA
:104D90000B4CADF80A00CDF8008069462046FEF7BE
:104DA000F7FB012240F225512046FEF7D8FB0121F6
:104DB0002046FEF7ABFB08B0BDE8F08100080240DA
:104DC000004C00402DE9F043814687B001210420CA
:104DD000FDF7E2F901210820FDF7DEF901210805C0
:104DE000FDF7E6F92B4F08220C213846FCF7FCF9B9
:104DF000DFF8A480082202214046FCF7F5F90225DD
:104E00008DF804500024B8148DF8064000908DF8F9
:104E1000055001268DF8076069463846FCF7A8F969
:104E20008DF8045004208DF8064000908DF8055050
:104E30008DF8076069464046FCF79AF935208DF8F1
:104E400018008DF819508DF81A408DF81B6006A8CF
:104E5000FCF7B0FFADF80C40ADF80E40ADF81040D7
:104E6000ADF814400C200D4CADF81200CDF80890B0
:104E700002A92046FEF78CFB012240F22551204674
:104E8000FEF76DFB01212046FEF740FB07B0BDE8B1
:104E9000F083000000080240000C02400050004077
:104EA0000249888008884006FCD570470010014000
:104EB00003490880081F01884906FCD57047000097
:104EC000044800400249888008884006FCD57047A5
:104ED00000500040D0E9013201699A60D0E9012315
:104EE0005A604A68824201D182684A6000220261A7
:104EF0000868401E0860704700F108014FF0FF325B
:104F0000C0E90112C1600161002101607047002108
:104F10000161704730B50C68621C02D000F10802D4
:104F200002E0026904E01A4653681D68A542FAD9F6
:104F300053684B6099608A60516008610168491C40
:104F4000016030BD42684A6093688B609368596025
:104F5000916008610168491C01607047502080F32E
:104F60001188BFF34F8FBFF36F8F09494868401C0A
:104F7000486001280AD10748006810F0FF0F05D0EB
:104F800040F2B91204A10FA0FBF7F4B9704700007A
:104F9000AC00002004ED00E02E2E5C4672656552E8
:104FA000544F535C706F727461626C655C5256440E
:104FB000535C41524D5F434D34465C706F72742EAA
:104FC000630000004572726F723A25732C25640DE0
:104FD0000A00000010B5084C606828B94FF4E07270
:104FE00006A111A0FBF7C6F96068401E606001D100
:104FF00080F3118810BD0000AC0000202E2E5C460E
:1050000072656552544F535C706F727461626C6567
:105010005C525644535C41524D5F434D34465C7084
:105020006F72742E630000004572726F723A2573BE
:105030002C25640D0A00000070B500282AD0164DFA
:10504000A0F108046068E968084205D14FF4A07235
:1050500012A11CA0FBF78EF9206828B140F2411282
:105060000EA118A0FBF786F96068E968084211D024
:105070002268002A0ED18843606000F0B5FA6068AB
:105080006968084468602046FFF7EAF8BDE87040A8
:1050900000F0B4BF70BD0000B80000202E2E5C46AA
:1050A00072656552544F535C706F727461626C65C7
:1050B0005C4D656D4D616E675C686561705F342E37
:1050C000630000004572726F723A25732C25640DDF
:1050D0000A00000006484FF47A710068B0FBF1F155
:1050E0004FF0E020491E4161072101617047000037
:1050F0000400002010B5FBF717F9104C10280CD352
:1051000000F1E02090F8F0032178884205D24FF4B6
:1051100040720BA115A0FBF72DF918480068A16893
:1051200000F4E060884207D9BDE810404FF44472B3
:1051300003A10EA0FBF71EB910BD0000AC000020BB
:105140002E2E5C4672656552544F535C706F7274BC
:1051500061626C655C525644535C41524D5F434DF5
:1051600034465C706F72742E630000004572726F7B
:10517000723A25732C25640D0A0000000CED00E046
:1051800010B5074B002253F832401CB1521C082ABC
:10519000F9D310BD43F8321003EBC201486010BDD3
:1051A0000406002070B515460E460446FFF7D6FEED
:1051B00094F944100020491C01D184F8440094F96A
:1051C0004510491C01D184F84500FFF703FFA06B8F
:1051D00028B92A46314604F1240000F027F9204678
:1051E000BDE87040FFF752BA10B5040012D00E4966
:1051F000096B29B140F2CF420CA111A0FBF7BAF81C
:1052000000F0F2F900212046FEF74AFE00F0F6FE1B
:10521000002807D10E494FF080500860BFF34F8F30
:10522000BFF36F8F10BD00005C0000202E2E5C4687
:1052300072656552544F535C7461736B732E6300D7
:105240004572726F723A25732C25640D0A000000B6
:1052500004ED00E02DE9F0410E4605004FF000049A
:1052600005D140F279421BA11FA0FBF783F82EB9AC
:1052700040F27A4217A11CA0FBF77CF81E4F386B56
:1052800028B140F27B4213A117A0FBF773F800F09E
:10529000ABF9FA6828688119904202D9884202D88D
:1052A00004E0884201D8914200D9012429601CB150
:1052B000881A0021FEF7F4FD00F0A0FE002807D1B7
:1052C0000E494FF080500860BFF34F8FBFF36F8FD0
:1052D000BDE8F0812E2E5C4672656552544F535CDA
:1052E0007461736B732E63004572726F723A25732B
:1052F0002C25640D0A0000005C00002004ED00E095
:1053000070B50446FFF72AFE234D04B92C68201D12
:10531000FFF7E0FD58B9E06A204A00EB800152F83F
:10532000211021B901218140286988432861A06AA0
:1053300018B104F11800FFF7CDFD686A401C6862DF
:105340002868844207D1211D1548FFF7FBFD6868D6
:10535000401C686007E0A868401EA8602046FEF771
:10536000DAFEFFF7F3F8FFF735FE6869002812D080
:10537000286884420FD1286B28B140F2654209A108
:105380000DA0FAF7F7FF10494FF080500860BFF307
:105390004F8FBFF36F8F70BD5C000020440600206C
:1053A000000900202E2E5C4672656552544F535CF6
:1053B0007461736B732E63004572726F723A25735A
:1053C0002C25640D0A00000004ED00E001490120D5
:1053D000C86170475C00002070B50D46040005D11F
:1053E00040F6063207A10CA0FAF7C4FF0E48016888
:1053F00020461831FFF78EFD2846BDE87040012198
:10540000FEF74EBD2E2E5C4672656552544F535CBE
:105410007461736B732E63004572726F723A2573F9
:105420002C25640D0A0000005C00002070B51446B5
:105430000E46050005D140F6313209A10DA0FAF75C
:1054400099FF1048016828461831FFF77BFD0CB121
:105450004FF0FF3621463046BDE87040FEF720BDD4
:105460002E2E5C4672656552544F535C7461736BAB
:10547000732E63004572726F723A25732C25640D8A
:105480000A0000005C00002070B5040039D01D4DFA
:10549000E06A2968C96A884233D2A069002804DB1F
:1054A0002868C06AC0F12000A061E06A164E00EBD7
:1054B0008000616906EB800081421FD1201DFFF74B
:1054C00009FD012150B9E06A00EB800256F8222064
:1054D00022B92A6901FA00F082432A612868C06A69
:1054E000E0622A6981401143296100EB800006EBEC
:1054F0008000211DBDE87040FFF724BD2868C06A08
:10550000E06270BD5C0000204406002010B504007D
:1055100005D140F6C13205A109A0FAF72BFF0C48CE
:10552000016A2160C068606010BD00002E2E5C46DC
:1055300072656552544F535C7461736B732E6300D4
:105540004572726F723A25732C25640D0A000000B3
:105550005C0000201CB517480024CDE9004023461C
:10556000822215A1164800F0EFFB012803D100F0BC
:10557000F1FD01280AD0401C1BD102B040F2847218
:10558000BDE810400FA114A0FAF7F4BE502080F33C
:105590001188BFF34F8FBFF36F8F06484FF0FF3175
:1055A0002C38816201214161C460BDE81C4000F0DB
:1055B00061B81CBD8800002049444C450000000033
:1055C000794100082E2E5C4672656552544F535C3B
:1055D0007461736B732E63004572726F723A257338
:1055E0002C25640D0A0000000248016B491C016370
:1055F000704700005C00002070B5134D286B10B19F
:105600000120E86170BD0020E86128690F4EB0FA02
:1056100080F0C0F11F0000EB800456F8240028B988
:1056200040F6F6220AA10FA0FAF7A4FE06EB8400CA
:1056300000F10802416849684160914201D149681E
:105640004160C868286070BD5C00002044060020EE
:105650002E2E5C4672656552544F535C7461736BB9
:10566000732E63004572726F723A25732C25640D98
:105670000A0000001CB5304C20683049884205D132
:1056800040F259122EA139A0FAF774FE20682B4976
:10569000491E884205D14FF4AD7229A133A0FAF713
:1056A00069FE364C20780190FF20207020788DF81C
:1056B00000009DF800009DF8001000F0F000884206
:1056C00005D040F273121EA128A0FAF753FE9DF8F0
:1056D00000002B4A00F0500010700720906007E097
:1056E0009068401E90609DF8000040008DF800001A
:1056F0009DF800000006F3D4107A000200F4E06088
:105700009060019820700C482030016841F47001CD
:105710000160016841F070410160FFF7DBFC00208F
:105720005060FAF7C9FD1748016841F04041016037
:10573000FAF7B2FD00201CBD00ED00E071C20F4180
:105740002E2E5C4672656552544F535C706F7274B6
:1057500061626C655C525644535C41524D5F434DEF
:1057600034465C706F72742E630000004572726F75
:10577000723A25732C25640D0A00000000E400E055
:10578000AC00002034EF00E010B5502080F3118809
:10579000BFF34F8FBFF36F8F00F016FB18B10449B2
:1057A0004FF080500860002080F3118810BD000089
:1057B00004ED00E02DE9F04117460E46050005D145
:1057C0004FF4C47210A115A0FAF7D4FDBEB105FBC9
:1057D00006F05430FEF796FF04000ED004F154009A
:1057E0007EB12060C4E90F562046012100F0E0F8A8
:1057F00084F8507000212046A164BDE8F0810020AB
:10580000E7E72460EEE700002E2E5C4672656552E5
:10581000544F535C71756575652E63004572726FE8
:10582000723A25732C25640D0A0000002DE9FF4F04
:1058300083B09B468A4604004FF0000605D140F233
:10584000DC4251A155A0FAF795FDBAF1000F07D13E
:10585000206C28B140F2DD424BA150A0FAF78AFD3E
:1058600000F09EFA38B9059828B14FF49C6246A121
:105870004AA0FAF77FFD4FF000094FF08057DFF89C
:105880002C81FFF76BFBA56B45B351462046E668BC
:10589000FEF7F8FBBBF1000F13D0E660606A50B171
:1058A00004F1240000F05EFB28B1C8F80070BFF3DB
:1058B0004F8FBFF36F8FFFF78DFB012007B0BDE85F
:1058C000F08F6D1EA563206810B9FEF7A5FF60601C
:1058D00020690028EFD004F11000E3E7059808B133
:1058E0001EB106E0FFF776FB27E06846FFF70EFEE5
:1058F0000126FFF76FFBFFF777FEFFF72FFB94F909
:105900004400401C01D184F8449094F94500401CA7
:1059100001D184F84590FFF75DFB05A9684600F0CA
:10592000CFF9002820460AD0FEF7B0FE00F066FB53
:105930002046FEF7D7FC0028A3D00020BEE7FEF7E4
:10594000D1FCD8B1206830B9FFF708FB6068FFF7D9
:105950009BFDFFF73FFB04F124000599FFF73CFD99
:105960002046FEF793FE00F049FB002889D1C8F8D5
:105970000070BFF34F8FBFF36F8F82E72046FEF7B3
:1059800085FE00F03BFB7CE72E2E5C46726565527F
:10599000544F535C71756575652E63004572726F67
:1059A000723A25732C25640D0A00000004ED00E016
:1059B00070B50D46040005D140F21B121CA121A0B8
:1059C000FAF7D8FCFFF7CAFAD4E90F20216802FBE6
:1059D000001161600021A1632168A1600A46D4E939
:1059E0000F01401E00FB0121E16021464FF0FF3016
:1059F00001F8440F487004F110004DB1FFF77CFA34
:105A000004F12400FFF778FAFFF7E4FA012070BDF3
:105A100021690029F8D000F0A5FA0028F4D00D493A
:105A20004FF080500860BFF34F8FBFF36F8FEBE7ED
:105A30002E2E5C4672656552544F535C71756575C8
:105A4000652E63004572726F723A25732C25640DC2
:105A50000A00000004ED00E02DE9FF4F83B09946F5
:105A60008B4604004FF0000605D140F2D92252A126
:105A700056A0FAF77FFCBBF1000F07D1206C28B1CC
:105A800040F2DA224CA151A0FAF774FCB9F1020FEE
:105A900008D1E06B012805D040F2DB2246A14BA0E3
:105AA000FAF768FC00F07CF938B9059828B140F2A3
:105AB000DE2241A145A0FAF75DFC4FF0000A4FF04D
:105AC0008057DFF81881FFF749FAA06BE16B884235
:105AD00006D3B9F1020F03D0059800B316B325E041
